:020000040800F2
:100000009005002045010008B30B0008190B0008FB
:10001000B10B0008AD020008111B00080000000031
:100020000000000000000000000000009D1000081B
:1000300085090008000000006D0D000891170008F8
:100040005F0100085F0100085F0100085F01000810
:100050005F0100085F0100085F0100085F01000800
:100060005F0100085F0100085F0100085F010008F0
:100070005F0100085F0100085F0100085F010008E0
:100080005F0100085F0100085F0100085F010008D0
:10009000CD1A00085F0100085F0100085F01000839
:1000A0005F0100085F0100085F0100085F010008B0
:1000B0005F0100085F0100085F0100085F010008A0
:1000C0005F0100085F0100085F0100085F01000890
:1000D0005F0100085F0100085F0100085F01000880
:1000E0005F0100085F0100085F0100085F01000870
:1000F0005F0100085F0100085F0100085F01000860
:100100005F0100085F0100085F0100085F0100084F
:100110005F0100085F0100085F0100085F0100083F
:100120005F0100085F0100085F0100085F0100082F
:10013000DFF80CD000F04AF8004800477D2D000899
:10014000900500200648804706480047FEE7FEE786
:10015000FEE7FEE7FEE7FEE7FEE7FEE7FEE7FEE777
:1001600095170008310100082DE9F05F05460020D1
:1001700092469B4688460646814640241BE0284618
:1001800041464746224600F042F853465A46C01AB6
:10019000914110D311461846224600F029F82D1A35
:1001A00067EB01084F4622460120002100F020F8AD
:1001B00017EB00094E41201EA4F10104DFDC484684
:1001C00031462A464346BDE8F09F0000064C074DE5
:1001D00006E0E06840F0010394E807009847103417
:1001E000AC42F6D3FFF7A8FFC0380008E03800089B
:1001F000202A04DB203A00FA02F1002070479140E7
:10020000C2F1200320FA03F3194390407047202ADB
:1002100004DB203A21FA02F00021704721FA02F3B0
:10022000D040C2F12002914008431946704770B592
:100230008C1810F8015B15F0070301D110F8013B91
:100240002A1106D110F8012B03E010F8016B01F818
:10025000016B5B1EF9D12B0705D40023521E0DD470
:1002600001F8013BFAE710F8013BCB1A921C03E0BE
:1002700013F8015B01F8015B521EF9D5A142D8D3F6
:10028000002070BD70B5084D4FF40054214628463B
:1002900000F005FCC82000F076FB21462846BDE8AA
:1002A000704000F0FEBB000000100140FEE7C1B24C
:1002B000000A40EA012070472DE9F84F0020ADF810
:1002C00000004BF6BF7648F280084A4D4A4C40F693
:1002D0008F7ADFF8289148F60F7B494F2FE0088886
:1002E00010F00F0089F8000032D007EB8001D1F840
:1002F000002CADF80020BDF8002012040BD5D1F879
:10030000002C02EA0A02C1F8002C3E4901EB8000F1
:1003100050F8040C8047BDF8000000060FD599F88E
:10032000000007EB8001D1F8002C02EA0B02C1F8B3
:10033000002C354901EB800050F8040C80472D4813
:1003400044300068314908800004C8D4BDE8F88F03
:1003500028682080208800F030006080208800F429
:10036000405020802868304080F4005080F0200009
:1003700040EA080028600888C00617D4296801EA06
:100380000B01296000F0CAFB28E02188890401D50F
:1003900080F400506188C90628D46188890601D597
:1003A00080F0200040EA08002860CFE72868ADF818
:1003B0000000BDF80000000506D5296801EA0A0121
:1003C000296001F00DF809E0BDF800000004B6D581
:1003D000286800EA0A00286000F094FC2868218858
:1003E0003040C904D1D580F48050CEE780F01000B1
:1003F000D3E70000005C00402A0000201800002025
:10040000005000406C000020500000204C000020F4
:10041000810008480844D0F8001C490409D5D0F8E8
:10042000001C48F68F7211404CF280021143C0F854
:10043000001C704700500040810008480844D0F874
:10044000001C490609D5D0F8001C48F68F721140EF
:1004500048F2C0021143C0F8001C70470050004031
:10046000810006480844D0F8001C48F68F6211400D
:1004700048F280021143C0F8001C70470050004051
:10048000124910B50A680628117801F07F0103D1DE
:10049000012901D1537913B121290AD013E09078B1
:1004A000222802D0212802D00DE0094904E00949A0
:1004B00002E0032807D1084929B100209161508248
:1004C0008847002010BD022010BD00001C00002045
:1004D0001D050008F504000801050008014901F0A8
:1004E00045B8000098000020014901F03FB8000025
:1004F00090000020014901F039B80000A800002058
:1005000008B10448704704490120096808820020A6
:10051000704700008C0000201C000020014901F001
:1005200025B80000A000002005490968C978042901
:1005300001D900207047034A02EBC10101F016B84F
:100540001C000020E000002009B9002800D0022093
:100550007047000006490968097801F07F012129E8
:1005600001D10B2801D00220704700F071B80000C3
:100570001C00002070B52948002100688172C172FA
:100580002749C9794172002000F08AFD4FF40071BB
:10059000002000F053FE1021002000F025FE18215D
:1005A000002000F0A9FD5821002000F0FFFD0020F0
:1005B000FFF756FF1B4890F82C10002000F0ACFD10
:1005C000002000F0E1FD4FF4C0642146012000F05E
:1005D00035FE9821012000F08FFD4021012000F020
:1005E0009BFDE100012000F0B7FD2146022000F054
:1005F00025FE4FF48C71022000F0D8FD402102202E
:1006000000F0E4FD2021022000F0EEFD064D012463
:100610002C60002000F04CFD2C6070BD1C00002000
:100620009E370008B0000020240100200348807A93
:10063000002802D0024905200860704730010020E0
:100640002401002001490420086070472401002093
:10065000034804490068C078086000207047000023
:100660001C0000208C0000207047704710B500F07F
:1006700039FA054800240068847200F09BFB01F001
:1006800027FA0248046010BD1C000020240100204D
:100690002DE9F047DFF89490254F4FF03008D9F856
:1006A000001001F11005088A0E7A08B9042E04D052
:1006B000AC88A04215D8042614E01E480178012910
:1006C00003D00726102038802BE01B4A0021126837
:1006D0001A4B120403EBD2325160A7F8008001706C
:1006E0001FE00226844200D90446A96820468847B4
:1006F0008246002000F0E8F901462246504601F00B
:1007000009FA2146002000F061FD2888001B28809E
:10071000688820446880A7F8008009494FF4405059
:100720000880D9F800000672BDE8F0871C000020A0
:100730002C00002014000020505C004000600040AD
:100740002A0000202DE9F047224EDFF88C80302768
:10075000346834F8100FA168A9B100B3A5888542A8
:1007600000D905462846884781462088401B2080BE
:10077000608828446080002000F096F901462A46EF
:10078000484600F0E3FA208848B114494FF440503D
:1007900008800021084600F019FDA8F800702088A4
:1007A000A188884201D3032001E020B105203168EF
:1007B0000872BDE8F08731680620087208490020F9
:1007C0000968084A090402EBD1314860A8F80070B2
:1007D000EFE700001C0000202C0000202A00002071
:1007E000505C004000600040F8B55D4C5D4D09264E
:1007F0002068002729684278062A05D0AAB1082A6D
:100800004DD00A2A50D06BE00278520668D1807829
:10081000012804D0022804D0032804D060E0C9696C
:1008200056E0096A54E0496A52E04288B2BBC28885
:10083000022A55D102798ABB0278530601D18388F6
:1008400033B102F07F02012A04D0022A0CD047E023
:1008500045493DE08A69407900219047F0B9206818
:10086000807A0028F4D13BE0417901F00F0001F0DB
:1008700070020B063D4901EB8001D1F8001C03D545
:10088000C1F30111090102E0C1F301310903384B41
:100890001B78834224D90AB90029D9D120E00078F5
:1008A00040061DD1334913E0027802F07F02012A8D
:1008B00016D1827AA2B1428892B9027982B9C288ED
:1008C000012A0DD18A6940790021904740B92A490F
:1008D00031B120684782816100208847002006E00E
:1008E00029682068096940788847032813D021685F
:1008F0000A8AA2F57F43FF3B0BD002280ED06AB1D3
:100900000878000626D5C888009082420AD9088255
:1009100018E00E72F8BD20680672F8BD4FF00800AE
:100920000872F8BD0ED22868144B90F82C00824251
:1009300001D21F7006E0B2FBF0F400FB142008B9EE
:1009400001201870286890F82C008882BDE8F840D3
:10095000FFF79EBE03200872094900030880F8BD16
:100960001C00002020000020B115000800500040AD
:100970008800002045150008891500081400002093
:100980002A000020704742F6E06302E01946491E43
:10099000FDD2401EFAD270477047000010B54022C9
:1009A0009821064800F0D2F94FF44051012000F0A0
:1009B000D3FB03490120087010BD00004C0100204A
:1009C000490000207047704704490A6822F010026D
:1009D0000A600A6802430A60704700000020024073
:1009E000034A116801F038010143116070470000AB
:1009F00000200240F0B5CC78002204F00F03E4069A
:100A000001D58C7823430C784FF00F0C14F0FF0FB6
:100A10004FF0010E1BD005680E880EFA02F4264036
:100A2000A64210D196000CFA06F725EA070703FA4A
:100A300006F5CE783D43282E02D0482E02D002E0A3
:100A4000446100E00461521C082AE5D305600A886D
:100A5000FF2A1CD94468002202F108060EFA06F5A6
:100A60000E882E40AE420ED196000CFA06F7BC431B
:100A700003FA06F7CE783C43282E00D14561CE78A4
:100A8000482E00D10561521C082AE5D34460F0BD10
:100A90000246002092680A4200D00120704741615E
:100AA00070470161704700000549096889B201EB90
:100AB000C000044901EB4000008980B2704700008B
:100AC000505C0040006000400449096889B201EBB5
:100AD000C000034931F8100080B27047505C0040FC
:100AE000006000400A4810B50168001D0468001D40
:100AF000006808180BD00822064900F03DF80549A7
:100B000020460422BDE81040103100F035B810BD79
:100B1000E8F7FF1F31000020FEE7000010B5134C7E
:100B20002068017A022904D0042902D0062905D0C0
:100B300015E0FFF7ADFD2068007A11E04178052946
:100B400009D10178490606D1C07800F0B1FA084809
:100B50000068006A8047074800688068804708206E
:100B600021680872BDE8104000F002B91C000020A6
:100B70002400002020000020F0B500230A243025A6
:100B800037261F4610E0B4EB107F02D905EB107C2E
:100B900001E006EB107C01F813C001EB430C0001EF
:100BA0005B1C8CF80170DBB29342ECD3F0BD704754
:100BB000FEE770477047000030B50F23C278017818
:100BC0000125F2B1144A126801F1E02102F4E06259
:100BD000C2F5E062120AC2F10404D3404278A24096
:100BE00084781C401443220181F80024007800F02E
:100BF0001F018D404009800000F1E020C0F8005145
:100C000030BD01F01F0085404809800000F1E02060
:100C1000C0F8805130BD00000CED00E002490843EF
:100C200002490860704700000000FA050CED00E082
:100C300070B52F4D296808784C78420606D000F030
:100C40007F00012828D002282BD035E0092C06D0BF
:100C5000052C07D0032C0ED0012C14D02CE000F072
:100C6000F1FC28E0C8787F282ED8887860BB888877
:100C700050BB887A27E0C87801281DD18888D8B968
:100C800000F0FCFC17E0C878012815D1888898B9D5
:100C9000487A80060AD40FE00B2C0DD100F044FDF9
:100CA00009E0012C02D0032C03D005E000F0CCFBBE
:100CB00001E000F0F5FC58B10E4920460968496989
:100CC0008847032802D018B108200DE009200BE066
:100CD000094A062000211268084B120403EBD232A5
:100CE0005160074A302111802968087270BD0000E8
:100CF0001C00002020000020505C004000600040EC
:100D00002C00002010B50F4C2068007A022811D06A
:100D100004280FD0032804D0052802D0072805D0C6
:100D200008E0FFF70FFD2068007A04E0064800683D
:100D3000C0688047082021680872BDE8104000F0B4
:100D400017B800001C00002020000020064B521C99
:100D5000520803EB410105D031F8043B20F8023B77
:100D6000521EF9D17047000000600040704700003B
:100D70000C4810B590F82C10002000F0CDF90A486E
:100D80000068007A082802D0092809D006E007493F
:100D90004FF480500880064910200880002010BDC4
:100DA000012010BDB00000201C0000202A000020FF
:100DB0002C00002010B5012000F0C4FD06480121E0
:100DC00001600021054A0160031D19604FF4E051E4
:100DD00011800160002010BD405C00402800002010
:100DE000044A0029D16901D0014300E08143D16167
:100DF0007047000000100240044A0029916901D0A8
:100E0000014300E0814391617047000000100240FF
:100E10000C48016841F00101016041680A4A114033
:100E200041600168094A11400160016821F4802194
:100E30000160416821F4FE0141604FF41F018160AF
:100E400070470000001002400000FFF8FFFFF6FEB0
:100E500030B5204A5168204B11F00C0103D0042911
:100E600001D0082901D0036012E05168536801F4F1
:100E700070114FF0020413F4803F04EB914102D053
:100E800053689B0301D5154B00E0134B5943016098
:100E900051680F2303EA1111114B5C5C0168E140BA
:100EA00041605468072505EA14241C5D21FA04F406
:100EB0008460546805EAD4241B5DD940C16052683F
:100EC000032303EA9232064B1B1F9A5CB1FBF2F13B
:100ED000016130BD0010024000127A0000093D009F
:100EE00004000020034600205909094A01290AD0BC
:100EF00002290AD0516A03F01F02012393400B42DA
:100F000000D0012070471168F5E7116AF3E700008F
:100F1000001002400248406800F00C0070470000DA
:100F200000100240034A516821F0F0010143516072
:100F300070470000001002400B490A6822F480321A
:100F40000A600A6822F480220A60B0F5803F07D068
:100F5000B0F5802F03D1086840F4A02008607047E6
:100F6000086840F48030F9E700100240034A5168F5
:100F700021F4E0610143516070470000001002401D
:100F8000034A516821F4605141EAC0005060704743
:100F9000001002400149086670470000000042420C
:100FA000034B5A68084322F47C1210435860704780
:100FB00000100240034A516821F0030101435160CF
:100FC00070470000001002400149C1F8D800704786
:100FD0000000424218B500204FF4A0640090312078
:100FE000FFF780FF0099491C0091A14201D0002821
:100FF000F5D03120FFF776FF002800D0012018BD82
:1010000070B51C4C072800D02070207806250426D7
:10101000194906282CD2DFE800F00306090E162035
:1010200000F02CF824E000F029F80AE002206070BB
:101030000320207070BD6078401E607060780028CA
:10104000F8D1267070BD086880B240F010000860CA
:10105000052020700A20607070BD6078401E6070AE
:1010600060780028F8D1086880B220F0100008608D
:10107000257070BD29010020405C004010B5064C71
:10108000206880B220F004002060FFF790FD4FF44C
:101090003F40206010BD0000405C004070470000F1
:1010A000024920F00700086070470000505C0040D3
:1010B000F0B50E490E4E48F68F770D78002148F2B4
:1010C000800C0BE0CAB206EB8203D3F8004C3C4024
:1010D000144344EA0C04C3F8004C491CA942F1D360
:1010E000044940F080000860F0BD00008800002046
:1010F000005000404C5C0040054A21F0010112689C
:1011000092B202EBC000034A02EB400081607047DC
:10111000505C0040006000400D4A12683E2992B2C7
:1011200002EBC0000B4A02EB400209D94809C9068C
:1011300001D1401E80B24FF4004141EA802004E01A
:101140004808C90700D0401C8002106070470000AA
:10115000505C00400C60004082000A480244D2F813
:10116000000C4BF68F731840CB0401D580F48050EF
:10117000890401D580F4005048F280010843C2F888
:10118000000C704700500040810007480844D0F828
:10119000001C4BF68F72114081F4405148F28002DE
:1011A0001143C0F8001C704700500040054A21F070
:1011B0000101126892B202EBC000034A42F810101B
:1011C00070470000505C004000600040044A126814
:1011D00092B202EBC000034A02EB4000416070474C
:1011E000505C00400060004082000A480244D2F88F
:1011F000000C48F6BF731840CB0601D580F01000F4
:10120000890601D580F0200048F280010843C2F829
:10121000000C704700500040810007480844D0F897
:10122000001C48F6BF72114081F0300148F2800284
:101230001143C0F8001C7047005000408200054870
:101240001044D0F8002C48F68F131A400A43C0F817
:10125000002C7047005000400CB500222648009238
:101260000192016841F4803101604FF4A06301688C
:1012700001F4003101910099491C0091019911B9C3
:1012800000999942F3D10168890333D50121019175
:101290001A490A6842F010020A600A6822F0030242
:1012A0000A600A6842F002020A60416841604168CF
:1012B0004160416841F480614160416821F47C11E2
:1012C0004160416841F4E8114160016841F080717A
:1012D000016001688901FCD5416821F0030141608A
:1012E000416841F0020141604168C1F38101022976
:1012F000FAD10CBD01920CBD00100240002002404A
:1013000038B5FFF785FD4FF480342046FFF714FE13
:10131000FFF760FE2A490128087000D0FEE7102080
:10132000FFF752FB0220FFF75BFB0020FFF7FAFDFF
:101330000020FFF725FE4FF48060FFF717FE4FF403
:10134000E0112046FFF72CFE0120FFF723FE392095
:10135000FFF7C8FD0028FAD00220FFF72BFEFFF7A9
:10136000D9FD0828FBD101214006FFF739FD0121F5
:101370000820FFF741FD4FF48040ADF80000022047
:101380008DF8020010248DF8034069460D48FFF7E0
:1013900031FB01211020FFF72FFD49F21B00ADF8B2
:1013A000000003208DF802008DF80340064C6946CA
:1013B0002046FFF71FFB18212046FFF770FB38BDC2
:1013C0002E000020000C01400010014010B500204C
:1013D000FFF7FAFD0121BDE81040C805FFF700BD89
:1013E00070B516480068174D0004C10B144801443D
:1013F000098989B200EB41042868017A09290FD0D4
:101400002178017061784170A088FEF750FF29684B
:1014100048802089FEF74BFF29688880A089C88012
:10142000286801210172C08828B1FFF7DDF9BDE805
:101430007040FFF79DBCFFF7FBFBF8E7505C0040F6
:10144000006000401C0000202DE9F0413848006891
:10145000017811F07F0102D0022905D066E0417ABF
:1014600001F0DF0141724EE0418800295ED101792F
:10147000F1BB4179304D21F080040A0605EB84026E
:101480002C4BD2F8002C03D5C2F30112120102E05A
:10149000C2F3013212031E782346A64246D93AB35C
:1014A000807A28B308064FEA84000ED52844D0F885
:1014B000000CC0F30110012821D11846FEF7BCFF33
:1014C00020463021FFF790FE19E04619D6F8000CAF
:1014D000C0F30130012812D14BF68F7748F2800813
:1014E000A4B11846FEF794FFD6F8000C384000E08F
:1014F0001CE080F4405040EA0800C6F8000C0F4899
:101500000068406980470020BDE8F0810C4890F8F1
:101510002C100020FFF700FED5F8000C384080F4B6
:10152000405040EA0800C5F8000CE8E70220EBE76D
:101530001C000020880000200050004024000020F3
:10154000B000002010B5074C30B1074800680068B3
:10155000804720680A3010BD2168012008820020E1
:1015600010BD00001C00002024000020054A136864
:101570005A8A10B10868104470478888801A188207
:10158000002070471C00002010B5074C30B1074800
:1015900000688068804720680C3010BD21680120F9
:1015A0000882002010BD00001C0000202400002044
:1015B000204910B5096860B11F48002202800A78EE
:1015C00053060AD002F07F02012A16D0022A16D052
:1015D00001E002200882002010BD497A8A060278C4
:1015E00002D542F0020201E002F0FD02490602705B
:1015F000D1B211D401F0FE0110E00F4810BD4979BD
:101600000A070B060D4901EB9261D1F8001C07D5C2
:10161000C1F3011106E0017841F00101017003E01E
:10162000C1F301310129F6D00548006800698047FF
:10163000E3E700001C0000201600002000500040DE
:10164000240000200A4810B500680A4AC178527880
:10165000914203D882780AB982880AB1022010BD6B
:1016600081720548006840688047002010BD000076
:101670001C0000208800002024000020064810B52F
:101680000068417A41F02001417204480068C06955
:101690008047002010BD00001C0000202400002016
:1016A00070B51D481D4D0268517921F0800005EB91
:1016B00080000B06D0F8003C21F0800403D5C3F372
:1016C00001131B0102E0C3F301331B03144D2D78FA
:1016D000A54210D9548874B96BB1927A5AB10906EF
:1016E000D0F8001C48F2800207D548F6BF731940B5
:1016F00081F0100106E0022070BD4BF68F73194097
:1017000081F480511143C0F8001C064800688069CC
:101710008047002070BD00001C00002000500040E9
:10172000880000202400002010B50E4C0E4A2068CE
:101730001268C17892694079904721688A7A22B10B
:1017400018B9087908B9887808B1022010BD07488F
:101750000068C068804720684179C172C178017310
:10176000002010BD1C0000202000002024000020CC
:101770000648016889B241F008010160016889B238
:1017800041F004010160FFF71EB90000405C004019
:10179000704700000F4810B5016841F00101016079
:1017A00041680D4A1140416001680C4A11400160D6
:1017B000016821F480210160416821F4FE0141604B
:1017C0004FF41F018160FFF747FD05494FF00060AE
:1017D000086010BD001002400000FFF8FFFFF6FE99
:1017E00008ED00E00029818902D041F4005101E0B8
:1017F00021F40051818170471FB500F099F84FF432
:10180000E13000900020ADF80600ADF80400ADF81E
:101810000800ADF80C000C20064CADF80A00694633
:10182000204600F02FF801212046FFF7DBFF00F0F3
:1018300003F81FBD0038014038B518208DF80300AB
:101840004FF40070ADF800000320094C8DF8020041
:1018500069462046FFF7CEF804218DF803100902EF
:10186000ADF8001069462046FFF7C4F838BD000007
:10187000000801400246002012880A4200D00120E0
:101880007047000030B50446008A85B00D464CF61E
:10189000FF710840E98801432182A0894EF6F311C7
:1018A0000840A9882A8911436A8902431143A1810A
:1018B000A08A4FF6FF410840A9890143A1826846EA
:1018C000FFF7C6FA1948844201D1039800E0029854
:1018D000A189090400EBC00101EB0010296801D5C2
:1018E000490000E08900B0FBF1F06422B0FBF2F1A6
:1018F00009010B096FF018056B4300EB8300A38906
:101900001D044FF0320306D503EBC000B0FBF2F02C
:1019100000F0070005E003EB0010B0FBF2F000F070
:101920000F000843208105B030BD000000380140A1
:10193000012144F20400FFF75FBAC1F3080181807E
:1019400070470000044A00284FF48041104601D03F
:10195000FFF7A5B8FFF7A5B8000C014038B504465D
:1019600001214020FFF748FA0821ADF800100321BB
:101970008DF802101421084D8DF803106946284691
:10198000FFF738F84FF00801284614B1FFF787F841
:1019900038BDFFF786F838BD00180140024610B583
:1019A0000020402900D94021044B03E01C5C02F8D0
:1019B000014B401C8842F9D3084610BD4C01002061
:1019C00006490548022208600272064A0448C1E935
:1019D0000102006800470000300100201C000020C8
:1019E000B00000200001002008B54FF44070FFF760
:1019F00015F914208DF8000001208DF80100002158
:101A00008DF802108DF803006846FFF7D5F808BD81
:101A100070B5294C2068294D68806888284E318827
:101A20000840000401D5FEF747FC6888318808406B
:101A3000400505D54FF6FF302060224840688047BA
:101A4000698830880140890402D54DF6FF71216014
:101A500069880140C80405D54EF6FF70206000205B
:101A6000FFF7CEFA68883188084000050BD5164884
:101A7000007810B1FFF77CFE02E00220FFF7C0FA09
:101A80004FF2FF702060698830880140890505D5D4
:101A90004FF6FF5121602978491C2970698801405F
:101AA000C80507D54FF6FF602060BDE870400720ED
:101AB000FFF7A6BA70BD0000445C00404A00002059
:101AC00028000020B000002028010020FFF7A0BF60
:101AD00005490020086005494FF43F40088002494D
:101AE000091F086000207047445C00402800002067
:101AF00010B50C468AB24FF48C7100F00BF84021FF
:101B00000220FFF763FB0220FFF786FB204610BD93
:101B1000FEE70000084B10B5521C520803EB4101D0
:101B200009D010F8013B521E10F8014B43EA042380
:101B300021F8043BF5D110BD006000400FB4054B07
:101B400010B503A9044A029800F018F810BC5DF81B
:101B500014FB0000512000082C01002002E008C8FE
:101B6000121F08C1002AFAD170477047002001E017
:101B700001C1121F002AFBD1704700002DE9FF4F61
:101B80008DB00F460546002606E025280BD0DDE97E
:101B90000F1290476D1C761C28780028F5D111B0E3
:101BA0003046BDE8F08F0024A246A1460122EC4950
:101BB00000E0044315F8013F203B02FA03F008421D
:101BC000F7D128782A2810D06FF02F022878A0F1BA
:101BD0003001092914D80AEB8A0102EB410144F0D3
:101BE000020400EB010A6D1CF0E701CF5FEA000A76
:101BF00003D544F40054CAF1000A44F002046D1CF9
:101C000028782E2817D115F8010F44F004042A284B
:101C10000ED06FF02F022878A0F1300109290AD8E0
:101C200009EB890102EB410100EB01096D1CF2E7B0
:101C300057F8049B6D1C28786C280FD006DC4C28C4
:101C400017D068280DD06A2814D104E0742810D069
:101C50007A280FD10DE044F400140AE044F4801413
:101C600001E044F440146978814202D104F5801403
:101C70006D1C6D1C2A786E2A1FD00CDC632A31D0B3
:101C800004DC002A8BD0582A11D1A3E0642A68D042
:101C9000692A0CD165E0732A2ED004DC6F2A73D038
:101CA000702A04D19BE0752A6FD0782A6ED0104636
:101CB000DDE90F129047761C50E1C4F30250022870
:101CC00006D0032809D0042801CF09D0066045E1D9
:101CD00001CFF117C0E9006140E101CF06803DE18D
:101CE00006703BE117F8040B8DF8000000208DF81A
:101CF0000100EB46012003E057F804BB4FF0FF3032
:101D000061074FF0000102D40DE008F1010188469F
:101D100049450FDA8045F8DB1BF808100029F4D19B
:101D200008E008F1010188468142FADB1BF808103F
:101D30000029F6D1DDE90F23AAEB080081462146F0
:101D400000F036F9304400EB080604E0DDE90F123C
:101D50001BF8010B9047B8F10108F7D2214648461D
:101D6000F7E00A21C4F302534FF0000B0891022B55
:101D700004D001CFC117032B09D00AE0FF1D27F0C3
:101D80000707F7E8020108E032E01FE020E000B2B8
:101D9000C117042B01D140B2C117031E71F100031A
:101DA00007DA4FF0000CD0EB0C006CEB01012D2397
:101DB00002E0230504D52B238DF82430012303E012
:101DC000E30701D02023F7E7984658E00A2110E006
:101DD00010210EE010204FF0000B08900CE01021B5
:101DE0004FF0000B44F004044FF00809089103E0A1
:101DF00008214FF0000B0891C4F30253022B04D0CA
:101E000001CF0021032B06D006E0FF1D27F00707B6
:101E1000F7E8020103E080B2042B00D1C0B24FF01A
:101E2000000823072BD5702A07D0DDF820C08CF0DE
:101E3000100C5CEA0B0C05D00EE040238DF824302A
:101E4000012308E050EA010306D030238DF8243046
:101E50008DF8252002239846DDF820C08CF0080C70
:101E60005CEA0B0C0BD150EA010301D1630706D5E4
:101E700030238DF824304FF00108A9F10109582AC8
:101E800004D038A20B9208AA0A920BE03AA2F9E712
:101E90005B46089AFEF768F90B9B9B5C0A9A521EF8
:101EA0000A92137050EA0102F2D10A98ADEB0000D9
:101EB00000F1200B600702D524F4803401E04FF0DC
:101EC0000109D94502DDA9EB0B0000E0002000EB81
:101ED0000B0141440890AAEB010AE00306D4DDE9B6
:101EE0000F232146504600F063F806444FF00009E6
:101EF00008E009A911F80900DDE90F12904709F17E
:101F00000109761CC145F4DBE0030CD5DDE90F23A4
:101F10002146504600F04CF8064404E0DDE90F127B
:101F200030209047761C0899481E08900029F5DC5F
:101F300008E00A980A990078491C0A91DDE90F1215
:101F40009047761CBBF10001ABF1010BF1DC21469F
:101F50005046DDE90F2300F019F806446D1C1BE61E
:101F6000092801003031323334353637383961626F
:101F70006364656600000000303132333435363733
:101F80003839414243444546000000002DE9F04104
:101F9000044600251E461746880404D405E0394649
:101FA0002020B0476D1C641EF9D52846BDE8F0819D
:101FB0002DE9F041044600251E469046C80301D590
:101FC000302700E02027880404D505E04146384644
:101FD000B0476D1C641EF9D52846BDE8F08108B5F0
:101FE00001228DF800208DF801008DF802100321E8
:101FF0006846FFF77DFD08BD38B501211020FEF7CA
:10200000FBFE4FF40054ADF8004002208DF80200B2
:1020100010200A4D8DF8030069462846FEF7EAFCB9
:1020200021462846FEF73BFD4FF47A70FEF7ABFCE5
:1020300021462846FEF735FD38BD0000001001405E
:10204000C000401EFDD27047401EFDD27047000008
:1020500070B5074D0446C1B22846FFF76EFC8021DB
:102060002846FFF707FC0028F9D0204670BD000085
:102070000038014010B5012808D002280ED04CF2DB
:10208000032403283CD00A2838D139E000221F213C
:10209000104601F01DFA002209212CE000221F2128
:1020A000104601F015FA00220921104601F010FA3D
:1020B00005221F21002001F00BFA48F68632052187
:1020C000002001F005FA4EF201220621002001F065
:1020D000FFF907221F21002001F0FAF910221E212A
:1020E000002001F0F5F941F208121521002001F05D
:1020F000EFF900221F21002001F0EAF9002010BDB5
:1021000002221F21002001F0E3F9224602210020D3
:1021100001F0DEF9BAE770B54FF40054012808D099
:10212000022812D04CF22B25032832D00A280AD1DB
:102130002FE000221F21104601F0CAF92246092192
:10214000002001F0C5F9002070BD05221F210020EC
:1021500001F0BEF948F686320521002001F0B8F9F9
:102160004FF462420621002001F0B2F907221F213C
:10217000002001F0ADF920221E21002001F0A8F975
:102180004FF484721521002001F0A2F900221F21D2
:1021900006E002221F21002001F09AF92A460221BE
:1021A000002001F095F9C4E710B5012809D10022FB
:1021B0001F21104601F08CF900220921104601F080
:1021C00087F9002010BD10B501280AD100221F2177
:1021D000104601F07DF94FF480420921002001F002
:1021E00077F9002010BD10B5012838D0022804D09E
:1021F000032834D00A2830D131E000221F211046B4
:1022000001F066F900220921104601F061F905226A
:102210001F21002001F05CF948F6863205210020DC
:1022200001F056F94EF201220621002001F050F98A
:1022300007221F21002001F04BF910221E2100204F
:1022400001F046F941F208121521002001F040F991
:1022500000221F21002001F03BF9002010BD0022C8
:102260001F21104601F034F900220921F2E72DE97F
:10227000F05F4FF404544AF206124FF230054FF467
:10228000977644F277074CF2A0584FF400494FF488
:10229000447A44F2C20B0B2860D2DFE800F05F06FC
:1022A00014A0626262626288A00000221F211046B0
:1022B00001F00EF942F218321821002001F008F95D
:1022C000002209216DE005221F21002001F000F904
:1022D00048F686320521002001F0FAF84FF46242F8
:1022E0000621002001F0F4F807221F21002001F050
:1022F000EFF820221E21002001F0EAF84FF484724A
:102300001521002001F0E4F800221F21104601F001
:10231000DFF807221F21002001F0DAF82F221E210A
:10232000002001F0D5F84DF618021721002001F029
:10233000CFF82D221E21002001F0CAF84FF26002D2
:102340001821002001F0C4F800221F21104601F0DE
:10235000BFF8AE225CE0002001F0BAF80020BDE832
:10236000F09F04221F21002001F0B2F83A4610210C
:10237000002001F0ADF842461521002001F0A8F838
:1023800000221F21104601F0A3F800214A4608460A
:1023900001F09EF852461821002001F099F85A46A3
:1023A0001C21002001F094F822460021D3E70022EE
:1023B0001F21104601F08CF800212246084601F04A
:1023C00087F800221C21104601F082F801221F210B
:1023D000002001F07DF841F601721921BBE71721B9
:1023E000002001F075F807221F21002001F070F88D
:1023F0002D221E21002001F06BF82A461821002012
:1024000001F066F800221F21104601F061F8324603
:102410001021A0E72DE9F05F4FF404544AF20612B0
:102420004FF230054FF4877644F277074CF2A0580C
:102430004FF400494FF4447A44F2C00B0B2860D2A9
:10244000DFE800F05F0614A0626262626288A000AA
:1024500000221F21104601F03BF842F218221821F9
:10246000002001F035F8002209216DE005221F212E
:10247000002001F02DF848F686320521002001F0F9
:1024800027F84FF462420621002001F021F80722CC
:102490001F21002001F01CF820221E21002001F045
:1024A00017F84FF484721521002001F011F8002272
:1024B0001F21104601F00CF807221F21002001F017
:1024C00007F82F221E21002001F002F84DF6180215
:1024D0001721002000F0FCFF2D221E21002000F01B
:1024E000F7FF4FF260021821002000F0F1FF0022F8
:1024F0001F21104600F0ECFF8E225CE0002000F06F
:10250000E7FF0020BDE8F09F04221F21002000F01B
:10251000DFFF3A461021002000F0DAFF4246152185
:10252000002000F0D5FF00221F21104600F0D0FF50
:1025300000214A46084600F0CBFF524618210020F1
:1025400000F0C6FF5A461C21002000F0C1FF2246C1
:102550000021D3E700221F21104600F0B9FF00211F
:102560002246084600F0B4FF00221C21104600F06D
:10257000AFFF01221F21002000F0AAFF4FF4F85204
:102580001921BBE71721002000F0A2FF07221F211D
:10259000002000F09DFF2D221E21002000F098FF5A
:1025A0002A461821002000F093FF00221F21104628
:1025B00000F08EFF32461021A0E72DE9F05F0128E0
:1025C00016D04FF48A5441F206054FF404560228FF
:1025D0001ED04DF641774DF620784FF4A0794FF498
:1025E000384A4FF4304B032860D00A285BD15DE0B5
:1025F00040F643221F21002000F06AFF42F2181229
:102600001821002000F064FF4FF48252002147E0BF
:1026100000221F21104600F05BFF00214FF4004212
:10262000084600F055FF07221F21002000F050FF50
:1026300042221E21002000F04BFF4FF4A062152122
:10264000002000F045FF00221F21104600F040FF4F
:1026500000212246084600F03BFF40221A210020BC
:1026600000F036FF07221F21002000F031FF2F224B
:102670001E21002000F02CFF4DF68F0217210020B4
:1026800000F026FF23221E21002000F021FF4FF43E
:1026900040721621002000F01BFF00221F2134E0B1
:1026A000002000F015FF0020BDE8F09F01221F214F
:1026B000002000F00DFF3A460321002000F008FF43
:1026C00042460221002000F003FF4A46012100207B
:1026D00000F0FEFE0021BB22084600F0F9FE524643
:1026E0000421002000F0F4FE5A460421002000F0EE
:1026F000EFFE00221F21104600F0EAFE40221A21C0
:10270000002000F0E5FE22460021002000F0E0FE5F
:102710002A461521002000F0DBFE32461721BFE7D4
:102720002DE9F05F4FF400454FF4A074012812D05A
:10273000022826D04FF641764DF220774FF43848E4
:102740004FF430494FF4407A4AF2011B032879D004
:102750000A2873D1D8E040F643221F21002000F060
:10276000B7FE00212A46084600F0B2FE1920FEF707
:102770000AF900212246084600F0AAFE42F6185245
:1027800020E100221F21104600F0A2FE00212A466F
:10279000084600F09DFE1920FEF7F5F807221F21DC
:1027A000002000F095FE42221E21002000F090FE45
:1027B0004FF414521521002000F08AFE23221E211E
:1027C000002000F085FE06221621002000F080FE89
:1027D00000221F21104600F07BFE00212246084601
:1027E00000F076FE60221A21002000F071FE072220
:1027F0001F21002000F06CFE2F221E21002000F07F
:1028000067FE4DF620021721002000F061FE002235
:102810001F21104600F05CFE40F206221521002028
:1028200000F056FE42F220121721002000F050FE68
:1028300042F260121721002000F04AFE0020BDE89D
:10284000F09FFFE701221F21002000F041FE3246E9
:102850000321002000F03CFE3A460221002000F057
:1028600037FE22460121002000F032FE0021BB226B
:10287000084600F02DFE42460421002000F028FE0C
:102880004A460421002000F023FE07221F210020D9
:1028900000F01EFE40221E21002000F019FE08223A
:1028A0001821002000F014FE00221F21104600F025
:1028B0000FFE52460921002000F00AFE20221A21B4
:1028C000002000F005FE00212246084600F000FE30
:1028D0005A461721002000F0FBFD4FF4007215212D
:1028E000002000F0F5FD4AF221121721002000F02F
:1028F000EFFD4AF261121721002000F0E9FD0021EE
:102900002A46084600F0E4FD01221F21002000F0C5
:10291000DFFD32460321002000F0DAFD3A460221B5
:10292000002000F0D5FD22460121002000F0D0FD5E
:102930000021BB22084600F0CBFD424604210020C6
:1029400000F0C6FD4A460421002000F0C1FD072228
:102950001F21002000F0BCFD40221E21002000F0BD
:10296000B7FD08221821002000F0B2FD00221F212F
:10297000104600F0ADFD52460921002000F0A8FDF0
:1029800020221A21002000F0A3FD00212246084643
:1029900000F09EFD5A461721002000F099FD4FF4EB
:1029A00000721521002000F093FD4AF22112172138
:1029B000002000F08DFD4AF261121721002000F086
:1029C00087FD2A46002136E770B501280AD04FF46A
:1029D0008A5402280ED048F24005032816D00A284F
:1029E00012D113E000221F21104600F071FD4FF4B8
:1029F000825205E000221F21104600F069FD2246A8
:102A00000021002000F064FD002070BD00221F2185
:102A1000104600F05DFD00212246084600F058FDFA
:102A20002A461421EDE770B54FF40044012808D080
:102A300044F24015022814D0032826D00A2822D1B7
:102A400023E000221F21104600F042FD0021224613
:102A5000084600F03DFD1920FDF795FF44F24002C5
:102A60000DE000221F21104600F032FD0021224619
:102A7000084600F02DFD1920FDF785FF2A460021AC
:102A8000084600F025FD002070BD00221F211046E1
:102A900000F01EFD00212A46084600F019FD4222E2
:102AA000EDE710B5012808D04FF48A54022811D060
:102AB00003280FD00A280BD10CE000221F2110465A
:102AC00000F006FD4FF482520021084600F000FDA0
:102AD000002010BD00221F21104600F0F9FC224604
:102AE000F2E710B54FF404540B2811D2DFE800F0E0
:102AF00010060606060606060606060000221F2128
:102B0000104600F0E5FC00212246084600F0E0FCFB
:102B1000002010BD10B54FF48A540B2812D2DFE804
:102B200000F01106131311111111111113000022DD
:102B30001F21104600F0CCFC4FF4825200210846C1
:102B400000F0C6FC002010BD00221F21104600F03E
:102B5000BFFC2246F2E770B54FF400444FF4C24583
:102B600041F6F8760B2829D2DFE800F02806164354
:102B70002C2C2C2C2C43430000221F21104600F04B
:102B8000A7FC00212246084600F0A2FC1920FDF710
:102B9000FAFE4FF4C0420DE000221F21104600F063
:102BA00097FC00212246084600F092FC1920FDF710
:102BB000EAFE05E00021002000F08AFC002070BD44
:102BC0002A46F7E700221F21104600F081FC002171
:102BD0002A46084600F07CFC07221F21002000F056
:102BE00077FC32461021002000F072FC00221F21E9
:102BF000E1E700221F21104600F06AFCE0E770B513
:102C00004FF48A544FF444550B2812D2DFE800F0F9
:102C1000110613131A1A1A1A1A1A130000221F2166
:102C2000104600F055FC4FF482520021084600F097
:102C30004FFC002070BD00221F21104600F048FC10
:102C40002246F2E700221F21104600F041FC2A46EE
:102C5000EBE710B54FF480740B2811D2DFE800F0D9
:102C600010060606121212121212060000221F216E
:102C7000104600F02DFC22460021084600F028FCFA
:102C8000002010BD00221F21104600F021FC402230
:102C9000F2E710B54FF48A540B2812D2DFE800F0A7
:102CA00011061313111111111111130000221F210C
:102CB000104600F00DFC4FF482520021084600F04F
:102CC00007FC002010BD00221F21104600F000FC70
:102CD0002246F2E770B54FF400444FF4824541F6C6
:102CE000F8760B282AD2DFE800F0290616422B2BB3
:102CF0002B2B2B42420000221F21104600F0E8FB44
:102D000000212246084600F0E3FB1920FDF73BFEB8
:102D10004FF480420EE000221F21104600F0D8FB45
:102D200000212246084600F0D3FB1920FDF72BFEB8
:102D300044F201020021002000F0CAFB002070BD17
:102D400000221F21104600F0C3FB00212A4608463E
:102D500000F0BEFB07221F21002000F0B9FB324625
:102D60001021002000F0B4FB00221F21E3E7002225
:102D70001F21104600F0ACFB2A46DBE7A8B0FEF7A7
:102D8000BFFAFEF739FDDC48FEF7D8FEDB48FEF758
:102D9000D5FEDBA0FEF7D2FEFEF726FEFEF716FB01
:102DA0000120FEF7DBFDFEF70BFEFFF725F900F033
:102DB0002FFA00F0CFF9DFF84C836E4620AD98F87B
:102DC00000100029FBD0002188F80010402168463F
:102DD000FEF7E4FD07460146CBA0FEF7AFFE002458
:102DE00004E0315DCFA0FEF7A9FE641CBC42F8D31D
:102DF000CEA0FEF7A3FEFDF745FA9DF801000728D7
:102E0000DDD2DFE800F0050411A2E0FB7500D6E793
:102E10009DF8020028B100F0B7F99DF802100020DB
:102E20002BE100F085F9F8E79DF8020098B1012840
:102E3000C5D19DF808000B283DD29DF806009DF8ED
:102E4000051000EB012082B29DF804109DF80300EC
:102E500000F03EFBB3E79DF806000B2807D29DF873
:102E600004109DF8030026AA00F012FA14E0A6D17F
:102E70009DF807009DF8041000EB012082B29DF838
:102E800005109DF8030000F0A1FB9DF805109DF8CA
:102E9000030026AA00F074FABDF89810A1A0FEF76E
:102EA0004DFEBDF89800010A8DF800108DF8010064
:102EB000402168461DE182D19DF806009DF805106D
:102EC00000EB012084B29DF809009DF8041000EB8E
:102ED000012082B29DF807109DF8030000F076FBF8
:102EE0009DF807109DF80300224600F0DFFB66E71F
:102EF0009DF80200A8B1012889D19DF807000B2890
:102F000085D19DF809009DF804109DF8053000EB6F
:102F1000012082B29DF806109DF8030000F09AFA95
:102F20004DE79DF807000B2894D19DF809009DF806
:102F300004109DF8053000EB012082B29DF80610C8
:102F40009DF8030000F0A4FA39E79DF8020001287B
:102F500010D0022813D003281BD0042814D0062830
:102F600017D007281AD008281DD00A2820D00B28EF
:102F700023D024E09DF80300FFF779F91FE09DF8C6
:102F80000300FFF747FA1AE09DF80300FFF71BF96B
:102F900015E09DF80300FFF7BEF810E09DF8030070
:102FA000FFF768F80BE09DF80300FFF7FDF806E077
:102FB0009DF80300FFF717F901E000F0B9F89DF85C
:102FC0000210032059E09DF80200012817D00228C2
:102FD0001AD003281DD0042820D0052823D0062885
:102FE00026D0072829D008282CD009282FD00A2835
:102FF00032D00B2835D00C2838D03BE040E09DF88B
:103000000300FFF767FE35E09DF80300FFF7A3FD1F
:1030100030E09DF80300FFF706FD2BE09DF803006C
:10302000FFF717FE26E09DF80300FFF75AFD21E0A9
:103030009DF80300FFF774FB1CE09DF80300FFF709
:1030400028FE17E09DF80300FFF764FD12E09DF8ED
:103050000300FFF7B9FC0DE09DF80300FFF7CFFD7B
:1030600008E09DF80300FFF71CFD03E09DF8030056
:10307000FFF7A3FA9DF802100420FEF7B0FF9EE6CA
:1030800000221F21104600F023FA0024301905EB1E
:1030900044028178002000F0FBF835F8141021A0DC
:1030A000FEF74CFD641C0B2CF0D3BDF8800010AB78
:1030B000010A8DF800108DF80100BDF88200010AA8
:1030C0008DF802108DF80300BDF88400010A8DF818
:1030D00004108DF805000020014635F81020401C32
:1030E000140A5C54491C5A54491C0B28F5D340213E
:1030F0001846FEF7FDFC62E6183800086C38000838
:103100000D0A000049000020757362206765742075
:10311000646174612025642062797465206461743F
:10312000610A0D0030782530325820000A0D000069
:1031300010B5074C02212046FDF7B1FC0F20FDF72A
:1031400022FC2046BDE810400221FDF7AABC000089
:103150000008014038B501210420FDF74DFE022092
:10316000ADF8000010218DF80310064C8DF8020018
:1031700069462046FDF73EFC02212046FDF791FC02
:1031800038BD00000008014008B500221F2110468C
:1031900000F09EF900216A46084600F079F8BDF873
:1031A0000000002140F40042084600F091F908BDFB
:1031B00070B50C4D002401212846FDF770FC00BFBE
:1031C000641C322CFBD301212846FDF76AFC002148
:1031D00000BF491C3229FBD32846BDE870400121BD
:1031E000FDF75FBC000C014010B5084C01212046E2
:1031F000FDF755FC0120FEF723FF01212046FDF7D6
:1032000050FCBDE810400120FEF71EBF000C01403D
:1032100010B500F00BF8002000F022F8BDE81040D7
:1032200002210148FDF73DBC000C014038B50121E9
:103230000820FDF7E1FD0120ADF8000010208DF819
:1032400003000220054C8DF8020069462046FDF778
:10325000D1FB01212046FDF722FC38BD000C0140C6
:1032600038B5044601210820FDF7C6FD0221ADF85E
:1032700000104CB148208DF803008DF8021069460B
:103280000248FDF7B7FB38BD1020F4E7000C014001
:103290002DE9F041074615460E460020FFF7E0FFF6
:1032A000DFF8D88002214046FDF7FBFB0024FFF742
:1032B0007FFF641CE4B2202CF9D30221444640462F
:1032C000FDF7EDFBFFF774FF02212046FDF7E9FB58
:1032D000FFF76EFF02212046FDF7E3FBFFF768FFD3
:1032E00002212046FDF7DBFBFFF762FF10243C4282
:1032F0004FF00201404602D0FDF7D3FB01E0FDF79D
:10330000CEFBFFF755FF6408F1D110244746344245
:103310004FF00201384602D0FDF7C3FB01E0FDF794
:10332000BEFBFFF745FF6408F1D10120FFF798FFCE
:10333000FFF73EFFFFF73CFF002028804FF40044DA
:1033400002213846FDF7A4FB012802D12988214338
:103350002980FFF72DFF6408F2D1FFF729FFFFF75F
:1033600027FFFFF725FFFFF723FFFFF721FFFFF7F9
:103370001FFFBDE8F041FFF71BBF0000000C01403C
:103380002DE9F041074615460E460020FFF768FF7D
:10339000DFF8BC8002214046FDF783FB0024FFF7E5
:1033A00023FF641CE4B2202CF9D30221444640469A
:1033B000FDF775FBFFF718FF02212046FDF76FFBB5
:1033C000FFF712FF02212046FDF76BFBFFF70CFF12
:1033D00002212046FDF765FBFFF706FF10243C4263
:1033E0004FF00201404602D0FDF75BFB01E0FDF724
:1033F00056FBFFF7F9FE6408F1D11024474634422A
:103400004FF00201384602D0FDF74BFB01E0FDF71B
:1034100046FBFFF7E9FE6408F1D10120FFF720FF2A
:10342000FFF7E2FEFFF7E0FE002028804FF40044A3
:1034300002213846FDF72CFB012802D129882143BF
:103440002980FFF7D1FE6408F2D1BDE8F0810000C9
:10345000000C0140F8B51C4617460D46064600F024
:10346000B5F86A4629463046FFF78AFF0120FDF786
:103470008AFA3A462946304600F0A8F80120BDF8FD
:103480000020A04082432946304600F00FF9F8BDE5
:10349000F8B51C4617460D46064600F097F86A46F2
:1034A00029463046FFF76CFF0120FDF76CFA3A46DB
:1034B0002946304600F08AF80120BDF80010A040EF
:1034C000084382B22946304600F0F0F8F8BD00000B
:1034D0002DE9F041074615460E460020FFF7C0FED5
:1034E000DFF8E48002214046FDF7DBFA0024FFF715
:1034F0005FFE641CE4B2202CF9D30221444640460E
:10350000FDF7CDFAFFF754FE02212046FDF7C9FA78
:10351000FFF74EFE02212046FDF7C1FAFFF748FEF5
:1035200002212046FDF7BDFAFFF742FE10243C427F
:103530004FF00201404602D0FDF7B3FA01E0FDF77B
:10354000AEFAFFF735FE6408F1D110244746344245
:103550004FF00201384602D0FDF7A3FA01E0FDF773
:103560009EFAFFF725FE6408F1D102213846FDF7E7
:1035700098FAFFF71DFE02213846FDF790FAFFF793
:1035800017FE4FF400442C424FF00201384602D09F
:10359000FDF787FA01E0FDF782FAFFF709FE6408FC
:1035A000F1D1FFF705FEFFF703FEFFF701FEFFF77E
:1035B000FFFDFFF7FDFDFFF7FBFDFFF7F9FDBDE8A0
:1035C000F0410120FDF7DFB9000C01402DE9F04189
:1035D000074615460E460020FFF742FEDFF8C8807A
:1035E00002214046FDF75DFA0024FFF7FDFD641C53
:1035F000E4B2202CF9D3022144464046FDF74FFAAD
:10360000FFF7F2FD02212046FDF749FAFFF7ECFD36
:1036100002212046FDF743FAFFF7E6FD022120468E
:10362000FDF73DFAFFF7E0FD10243C424FF00201A8
:10363000404602D0FDF735FA01E0FDF730FAFFF71A
:10364000D3FD6408F1D11024474634424FF0020103
:10365000384602D0FDF725FA01E0FDF720FAFFF722
:10366000C3FD6408F1D102213846FDF71AFAFFF7CD
:10367000BBFD02213846FDF712FAFFF7B5FD4FF406
:1036800000442C424FF00201384602D0FDF709FAFF
:1036900001E0FDF704FAFFF7A7FD6408F1D1BDE8EA
:1036A000F041FFF7A1BD0000000C01402DE9F04101
:1036B000074615460E460020FFF7D2FDDFF8C8800A
:1036C00002214046FDF7EDF90024FFF78DFD641C53
:1036D000E4B2202CF9D3022144464046FDF7DFF93D
:1036E000FFF782FD02212046FDF7D9F9FFF77CFDA7
:1036F00002212046FDF7D3F9FFF776FD022120468F
:10370000FDF7CFF9FFF770FD10243C424FF00201A6
:10371000404602D0FDF7C5F901E0FDF7C0F9FFF71B
:1037200063FD6408F1D11024474634424FF0020192
:10373000384602D0FDF7B5F901E0FDF7B0F9FFF723
:1037400053FD6408F1D102213846FDF7AAF9FFF7CD
:103750004BFD02213846FDF7A2F9FFF745FD4FF476
:1037600000442C424FF00201384602D0FDF799F98F
:1037700001E0FDF794F9FFF737FD6408F1D1BDE8EA
:10378000F041FFF731BD0000000C014012010002C2
:1037900000000040830450570002010203010902A7
:1037A0002900010100C09609040000020300000086
:1037B00009211001000122210007058203400002B7
:1037C00007050103400002058C0901A10109031549
:1037D000002600FF750895408102090415002600A7
:1037E000FF750895409102C00403090414034400C6
:1037F00061006E007A0061005F0053004D004900D7
:103800001803440061006E007A0061005500530007
:10381000420053004D0049000D0A2A2A2A2A2A2A6A
:103820002A2A2A2A2A2A2A2A2A2A2A2A2A2A2A2AF8
:103830002A2A2A2A2A2A2A2A2A2A2A2A2A2A2A2AE8
:103840002A2A2A2A2A2A2A2A2A2A2A2A2A2A2A2AD8
:103850002A2A2A2A2A2A2A2A2A2A2A2A2A2A2A2AC8
:103860002A2A2A2A2A2A2A2A2A0000000D0A2A2A73
:103870002A2A2A2A2A2A2A2A2A2A2A2A2A2A2A2AA8
:103880002A2A2A2A2A2A53544D333220534D4920BA
:10389000554152542044454255472A2A2A2A2A2A69
:1038A0002A2A2A2A2A2A2A2A2A2A2A2A2A2A2A2A78
:1038B0002A2A2A2A2A2A2A2A2A2A2A2A2A000000E6
:1038C000E038000800000020300100002E0200084F
:1038D0006C39000830010020600400006C1B0008F7
:1038E00045020406082D0102030404051B0607080F
:1038F00009141A0378A90201111399091B08C504B8
:103900000B10B50B040A159D182904630301138CD1
:10391000373308121A9E0832291AC70832211AB002
:10392000082999136D06140875051B0869081A6B98
:10393000041381041B0855101A49041AE90C1ADDF6
:10394000041A290C4132401AE83832041AEC0842B1
:10395000141238330818222F33201A297C1A2D48C4
:0C3960000916981A451C41599F110000DF
:0400000508000131BD
:00000001FF
